:10100000000004202B4D0000D74D0000DB4D0000F8
:10101000D74D0000D74D0000D74D00000000000064
:10102000000000000000000000000000D74D00009C
:10103000D74D000000000000D74D0000D74D000044
:10104000D74D0000D74D0000D74D0000D74D000010
:10105000D74D0000D74D0000D74D0000D74D000000
:10106000D74D0000D74D0000D74D0000D74D0000F0
:10107000D74D0000D74D0000D74D0000D74D0000E0
:10108000D74D0000D74D0000D74D0000D74D0000D0
:10109000D74D0000D74D0000D74D0000D74D0000C0
:1010A000D74D0000D74D0000D74D0000D74D0000B0
:1010B000D74D0000D74D00000000000000000000E8
:1010C000D74D0000D74D0000D74D0000D74D000090
:1010D000D74D0000D74D0000D74D0000D74D000080
:1010E000D74D0000D74D0000D74D00000000000094
:1010F00000000000D74D000000000000D74D0000A8
:101100002DE9F04F81B000F1020800F104090D460D
:1011100004464FF0000A4CF2503B012600272046BF
:1011200001F03BFC284601F084FEC0F840B528469B
:1011300001F07FFEC660284601F07BFE066028466F
:1011400001F077FED0F840010028F8D0284601F0E1
:1011500070FEC0F840A1484601F01FFC284601F08F
:1011600068FEC0F840B5284601F063FEC660284618
:1011700001F05FFE0660284601F05BFED0F84001FA
:101180000028F8D0284601F054FEC0F840A12046BF
:1011900001F015FC284601F04CFEC0F840B5284689
:1011A00001F047FEC660284601F043FE066028466F
:1011B00001F03FFED0F840010028F8D0284601F0A9
:1011C00038FEC0F840A1404601F0E7FB284601F098
:1011D00030FEC0F840B5284601F02BFEC660284618
:1011E00001F027FE0660284601F023FED0F84001FA
:1011F0000028F8D0284601F01CFEC0F840A148465F
:1012000001F0DDFB284601F014FEC0F840B5284689
:1012100001F00FFEC660284601F00BFE066028466E
:1012200001F007FED0F840010028F8D0284601F070
:1012300000FEC0F840A1204601F0AFFB284601F0B7
:10124000F8FDC0F840B5284601F0F3FDC660284619
:1012500001F0EFFD0660284601F0EBFDD0F84001FB
:101260000028F8D0284601F0E4FDC0F840A140462F
:1012700001F0A5FB0137052F7FF451AF204601B0E7
:10128000BDE8F04F01F09BBBB0B5D3B2022B09D142
:101290000C7B0623DFE804F0040C14191E23240041
:1012A00000231DE00621017002F001010173B0BDB1
:1012B0000B7DD1F810C003F0010E4A7B01230FE033
:1012C000D1E904CE02234A7B0AE0D1E904CE03230C
:1012D0004A7B05E0D1E904CE04234A7B00E00523E4
:1012E000062142700370C0E901CE0173B0BD2DE943
:1012F000F04F89B0DDE912BA05AC06469946904632
:101300000F4620464AB301F05AFA01AD21460622A3
:10131000284601F064FA05AC29460022204601F077
:1013200078FA01AD21460322284601F08AFA05AC7D
:1013300029460022204601F09CFA01AD21460022F8
:10134000284601F0AEFA05AC29464A46204601F08F
:10135000C0FA01AD21464A462EE001F030FA01AD57
:101360005FFA89F021284FF008022846214638BF4D
:10137000062201F034FA05AC29460022204601F08D
:1013800048FA01AD21460322284601F05AFA05AC7D
:1013900029460022204601F06CFA01AD21460022C8
:1013A000284601F07EFA05AC29464A46204601F05F
:1013B00090FA01AD21460022284601F0A2FA05ACC0
:1013C00029460122204601F0B4FA01A82146002254
:1013D000002501F0C6FA01AA9DF810308DF82030E2
:1013E00005AB07CA07C305A9384600F039FC3846E3
:1013F00001F015FDC0F80455C7E901553868C6E984
:1014000000054FF400701499B56070864FF40030F9
:10141000C6E906BA31621599C6E90915F06286F87F
:101420003190357386F8308009B0BDE8F08FD4D4A0
:101430002DE9F04F87B00646044616F80C0F052834
:1014400050D002282AD001285BD1607B94F8148008
:10145000D4F81090DFE810F006006D01D3000B0106
:1014600076008601204601F0DAFC0025C0F8105114
:10147000204601F0D4FC04466846009501F0F2FCD9
:101480000098206140F201108DF81480ADF80C0036
:1014900006208DF81800CDF81090D9E2617BD4E9D0
:1014A0000487380A3D0EDFE811F00600CA006D001F
:1014B00080003E00FF00204601F0B1FC0025C0F88E
:1014C0001051204601F0ABFC04466846009501F03F
:1014D000C9FC009820614FF48170CDE90487ADF814
:1014E0000C00B2E2204601F09AFCD0F81001C007CF
:1014F0000BD103A821460222FFF7C6FE9DF8180073
:101500000EE0052007B0BDE8F08F204601F087FC13
:101510000021C0F8101107208DF818008DF80C106C
:1015200003AB0ECB99E2204600F026FCC0B20228A5
:1015300040F08F810620CDF810808DF8180040F221
:10154000025082E1A56955B10020E769C4E90600AF
:10155000204601F064FCC0F80455C4E90157204658
:1015600000F00AFCC0B2022840F0738106208DF81A
:10157000180040F201508DF81480CDF81090ADF8AD
:101580000C0065E2224652F8041F00290EBF0A46ED
:101590005168002940F0338144F690600021C0F288
:1015A0000000002201F033FDFEDE204601F037FC92
:1015B000D0F80001C00700F0E380204601F02FFCC6
:1015C0000021C0F80011204601F029FCD0F8500598
:1015D00000F00F010C2900F2BE810120DFE811F0BC
:1015E0000D00BC01AD01B501B701BB01BB01BB01E1
:1015F000BB01AF01B101B301B9010020ACE1A569A4
:1016000055B10020E769C4E90600204601F007FC57
:10161000C0F80455C4E90157204600F029FCC0B2C7
:10162000022840F0168106208DF8180040F20130A3
:101630008DF81480CDF81090ADF80C0008E220462B
:1016400001F0EDFBD0F81001C00700F099802046B2
:1016500001F0E5FB0021C0F8101140F20220ADF8C6
:101660000C0006208DF81800CDE90487F0E1A5698B
:1016700055B10020E769C4E90600204601F0CFFB20
:10168000C0F80455C4E90157204601F0C8FBD0F862
:101690000001C00774D0204601F0C1FB0021C0F852
:1016A000001140F2014053E0204601F0B8FBD0F8B1
:1016B0000C01C00706D1204601F0B1FBD0F81001A3
:1016C000C0075DD0204601F0AAFB0025C0F80C51F0
:1016D000204601F0A4FBC0F80451204601F09FFB16
:1016E000C0F808512046C4E90A8701F098FBC0F809
:1016F0000455D4E90101C4E90155C4E908012046B3
:1017000001F08DFBD0F81001C00740F0AA80204600
:1017100001F085FBC0F81051204601F080FB044623
:1017200003A8039501F09EFB039805252061062080
:1017300098E0204601F073FBD0F81001C0071FD0DD
:10174000204601F06CFB0021C0F8101140F201208E
:10175000CDF81090ADF80C0006208DF818008DF82B
:10176000148075E1204601F05AFBD0F80C01C00747
:101770000CD1204601F053FBD0F81001C00705D171
:1017800003A821460222FFF77FFD61E1204601F018
:1017900046FB0025C0F80C51204601F040FBC0F884
:1017A0000451204601F03BFBC0F80851204601F0EF
:1017B00036FBD0F80004C00759D1204601F02FFBBA
:1017C000D0F8500500F00F010C2900F2198101201A
:1017D000DFE811F00D001701E40001010801160116
:1017E000160116011601EB00F300FA000F010020AC
:1017F00000F0CCFFC0B2042840F20881DBE01268A0
:1018000000230129137000F06D81400002295070FF
:1018100003D0901C023903F082FA20468DF80C5058
:1018200001F0FDFA054603A800F084FFC5F82C0579
:10183000204600F09BFBC0B202280AD10620CDF85A
:1018400010808DF8180040F20230ADF80C000597BA
:10185000FEE000F001008DF8180006208DF80C0065
:10186000F6E007208DF818008DF80C50F0E02046C7
:10187000D4E90879C4E9085501F0D1FAC0F8047533
:101880002046616840F8181F002950F8102C676046
:1018900040F8109C426008BF084604D04168002907
:1018A00018BF012906D144F63060C0F2000001F0F3
:1018B00092FBFEDE006805784778204601F0AFFA1B
:1018C000D0F80804C7F3410900F0070000F018FF42
:1018D0005FFA80FABAF1080F00F00D81204607F098
:1018E000010701F09CFAD0F80CB457EA08000ED0BA
:1018F000204684F82FA084F82E7084F82D9084F868
:101900002C50C4F828B001F08AFA0025EFE62046F2
:1019100001F085FAD0F8500500F00F010C2900F213
:10192000B7800120DFE801F007B5A6AEB0B4B4B4CB
:10193000B4A8AAACB2000020ABE002200CE0092061
:101940000AE00A2008E00B2006E0032004E004205F
:1019500002E00C2000E0084600F018FFC1B20020B1
:1019600008290FD8DFE801F0050E0E0E0E09070B4F
:101970000D00022006E0042004E0032002E0052020
:1019800000E001200621CDF810808DF818108DF8A8
:101990000D0002208DF80C00059759E0022000F0A0
:1019A000F5FEC0B2042831D905E0092000F0EEFEB2
:1019B000C0B204282AD9002036E00A2000F0E6FE52
:1019C000C0B2042822D9F6E70B2000F0DFFEC0B237
:1019D00004281BD9EFE7032000F0D8FEC0B204288A
:1019E00014D9E8E7042000F0D1FEC0B204280DD9D4
:1019F000E1E70C2000F0CAFEC0B2042806D9DAE7FD
:101A0000084600F0C3FEC0B20428D4D8DFE800F0D6
:101A1000030B07090500022006E0012004E0042072
:101A200002E0052000E003208DF81480CDF810902E
:101A30008DF80D0001209DF80210BDF800208DF8F2
:101A40000C00ADF815208DF8171006208DF8180041
:101A50000399049A059B9DF8180002930192009146
:101A60006946D1E900238968C6E90023B16007B05F
:101A7000BDE8F08F02200CE009200AE00A2008E00F
:101A80000B2006E0032004E0042002E00C2000E02C
:101A9000084600F07BFEC1B2002008290FD8DFE81D
:101AA00001F0050E0E0E0E09070B0D00022006E0D8
:101AB000042004E0032002E0052000E001200621CC
:101AC0008DF818108DF817A08DF816708DF81590F8
:101AD0008DF81450CDF810B08DF80D0002208DF85F
:101AE0000C00B5E744F6A0600121C0F2000001221D
:101AF00001F08DFAFEDE44F67870C0F2000001F0CD
:101B00006AFAFEDE704780B582B000680022802944
:101B1000019207D28DF80410012201A900F05BF8B0
:101B200002B080BD0222B1F5006F0ED28B0962F3C4
:101B30009F118DF80510062161F35F138DF80430B5
:101B400001A900F048F802B080BD0B46B1F5803F16
:101B500062F39F1312D28DF806308B0962F39F1344
:101B6000090B0E228DF8053062F31F118DF8041059
:101B7000032201A900F02FF802B080BD8DF80730D4
:101B80008B0962F39F138DF806300B0B62F39F13E2
:101B9000F02242EA914104228DF805308DF80410BC
:101BA00001A900F018F802B080BD70B588B00068D7
:101BB00002AA019091E87850104644F6B061C0F254
:101BC000000180E8785001A801F002FF08B070BD64
:101BD000006800F000B82DE9F04784B04FF000082D
:101BE00014460546EA464FF00109CDE90288CDE9E1
:101BF00000888CB3102C274628BF102761B35046AD
:101C00003A46E41BCE1902F0E8FF284601F00CF931
:101C1000C0F844A5284601F007F9C0F848752846E1
:101C200001F002F9C0F80890284601F0FDF8D0F85C
:101C300020010028F8D0284601F0F6F8C0F82081ED
:101C4000284601F0F1F8D0F84C053146B842D0D022
:101C5000012004B0BDE8F087002004B0BDE8F087A3
:101C6000F0B581B00D46044601F0D9F80646D0F82B
:101C700014752878012804BF687860F30307A878F2
:101C8000022806D027F48071002818BF012041EAFD
:101C90000027284610F8031F102906D000F079FE0F
:101CA000B0F5807F5AD260F313472879022807D015
:101CB000013827F48011B0FA80F0400941EA00575A
:101CC000284610F8051F042906D000F064FEB0F580
:101CD000807F43D260F31967A879022806D027F0E5
:101CE0008061002818BF012041EA80672046C6F8BD
:101CF000147501F094F8D0F81815EA79012A02BF9A
:101D00002A7A21F0FF0111446A7A012A02BFAA7AD5
:101D100021F47F4141EA0221EA7A022A07D12A7B93
:101D2000022A0FD1C0F81815204601B0F0BD013AC3
:101D300021F08071B2FA82F2520941EA02612A7BF3
:101D4000022AEFD021F00071002A18BF012241EAD7
:101D50004261C0F81815204601B0F0BD44F69070FD
:101D600044F6BC73C0F20000C0F200036A462B21A7
:101D700001F082F9FEDED4D4B0B582B004464568E5
:101D800001F04DF8D0F8500500F00F010C2951D8A2
:101D90000120DFE801F007083B43494F4F4F4F5503
:101DA0005B616700002000F0F1FCA5B340F0040087
:101DB000C0B2062827D12046656801F030F8C0F887
:101DC0000455204601F02BF80025C0F80C512046A0
:101DD00001F025F8C0F80451204601F020F8C0F8C1
:101DE0000851204601F01BF8C0F81051204601F0C0
:101DF00016F8044601A8019501F034F80198A06096
:101E0000022002B0B0BD012002B0B0BD022000F03F
:101E1000BDFC002DCAD1002002B0B0BD032000F0EF
:101E2000B5FC002DC2D1F6E7042000F0AFFC002D78
:101E3000BCD1F0E7084600F0A9FC002DB6D1EAE7D6
:101E4000092000F0A3FC002DB0D1E4E70A2000F047
:101E50009DFC002DAAD1DEE70B2000F097FC002DA1
:101E6000A4D1D8E70C2000F091FC002D9ED1D2E740
:101E7000B0B582B00446456800F0D1FFD0F85005F7
:101E800000F00F010C2953D80120DFE801F007080A
:101E90003D454B51515151575D636900002000F0A1
:101EA00075FCB5B3000602D0012002B0B0BD2046DB
:101EB000656800F0B4FFC0F80455204600F0AFFF9D
:101EC0000025C0F80051204600F0A9FFC0F81051CD
:101ED000204600F0A4FFC0F80C51204600F09FFF00
:101EE000C0F80451204600F09AFFC0F8085120467F
:101EF00000F095FF044601A8019500F0B3FF01989A
:101F00006060022002B0B0BD022000F03FFC002D56
:101F1000C8D1002002B0B0BD032000F037FC002D76
:101F2000C0D1F6E7042000F031FC002DBAD1F0E773
:101F3000084600F02BFC002DB4D1EAE7092000F0A0
:101F400025FC002DAED1E4E70A2000F01FFC002D97
:101F5000A8D1DEE70B2000F019FC002DA2D1D8E7B4
:101F60000C2000F013FC002D9CD1D2E7B0B582B05C
:101F70000446456800F053FFD0F8500500F00F010B
:101F80000C2953D80120DFE801F007083D454B51EB
:101F9000515151575D636900002000F0F7FBB5B364
:101FA000000602D0012002B0B0BD2046656800F0F6
:101FB00036FFC0F80455204600F031FF0025C0F878
:101FC0000051204600F02BFFC0F81051204600F0D1
:101FD00026FFC0F80C51204600F021FFC0F8045144
:101FE000204600F01CFFC0F80851204600F017FF03
:101FF000044601A8019500F035FF019820600220F9
:1020000002B0B0BD022000F0C1FB002DC8D10020FD
:1020100002B0B0BD032000F0B9FB002DC0D1F6E73F
:10202000042000F0B3FB002DBAD1F0E7084600F021
:10203000ADFB002DB4D1EAE7092000F0A7FB002D8D
:10204000AED1E4E70A2000F0A1FB002DA8D1DEE725
:102050000B2000F09BFB002DA2D1D8E70C2000F054
:1020600095FB002D9CD1D2E77047D4D4C8B025A8E9
:1020700000F0B7FC9DF89500022800F09582BDF8AD
:102080009C000DACDDE92512ADF83C002046CDE901
:102090000D1245F28011C0F200011122FFF79BFDE5
:1020A00000F086FD25ADA01CA24609902946FFF749
:1020B00027F800F06BFD284600F0AEFE012101601C
:1020C000284600F0A9FED0F800010128F8D12846E2
:1020D00000F0A2FE0021C0F800111291CDE91051CC
:1020E00010AD8DF89410284600F099FE064625A8FC
:1020F00000F022FBC6F80C0501208DF8940028465C
:1021000000F08DFE064625A800F0D8FAC6F81005A6
:102110004E2000F0C0FA064628460F46CCB200F02A
:102120007EFE652C80F0478206F0010107F07F02F9
:1021300025AE42EA0121C0F808154BF2A011304645
:10214000CDF2C23100F0B4FABDF8940078B10128A4
:1021500004D0DDE926784FF480240EE0DDE9260185
:1021600021F07F484FF4403420F07F4705E0BDF870
:1021700098804FF40034BDF8967010AD284600F0FA
:102180004EFED0F8181521F4E0212143C0F81815AF
:10219000284600F044FE97FAA7F1C0F81C1528461F
:1021A00000F03DFE98FAA8F1C0F82015284600F08E
:1021B00036FE48F20771CCF24771C0F82415284664
:1021C00000F02DFE4AF22771CEF26771C0F8281593
:1021D000284600F024FEFF21C0F83015284600F004
:1021E0001EFE13AD4FF00109C0F8FC9F22212846C6
:1021F000222402F097FD1CAF2221384602F092FD06
:1022000010AA36AB07CA07C3202000F037FA0DF139
:10221000D80800F001020B4630464146CDE9005493
:10222000CDE90274FFF763F8304600F0F8FDD0F80E
:102230003415022262F30101C0F83415304600F073
:10224000EEFD4FF6FF71C0F83C15304600F0E7FD9B
:1022500041F22101C0F20101C0F8381500F0BCF9CB
:1022600001F00101012200F0BAF90D4645F2911189
:1022700054468246C0F2000120460D22FFF7ABFC17
:10228000201D0C9000F089FB32A80DF58E7B411DBE
:102290000791011D07300590A01D0B9005F001006E
:1022A000099D022706910A90CDF820A09DF8A00074
:1022B00048B302208DF81C010C9800F080FB2846E2
:1022C00000F06BFB42F2E550CDF8EC90C0F200005C
:1022D00044F6B061429041A83A9000203990C0F293
:1022E0000001389045F2A810C0F2000037973690F0
:1022F00032A84246CDF804B1329401F069FB9DF852
:10230000A0000028D5D12B9800282BD04FF4003006
:10231000309000202F90304600F081FDD0F850051D
:1023200000F00F010C2900F22E810120DFE811F0EE
:102330000D000E00240013011B012B012B012B01AA
:102340002B01FB0003010B012301002000F01EFA0A
:10235000C0B2042816D8DFE800F0030D090B07000F
:10236000022010E00320A5E701200CE004200AE091
:10237000052008E0032006E0022000F007FAC0B2C2
:102380000428E8D900200A998DF8A810CDF8A4A057
:102390008DF8A1000C988DF8A09000F0FEFA284668
:1023A00000F00DFB0B9800F0F8FA3046FFF740F80C
:1023B000C0B20628F9D0072840F0A980309800F470
:1023C0007F0191F4003F00F0EF802B992F9ACDE927
:1023D000322000291EBF06F118014D68002D00F0C3
:1023E000DA80012D00F0EE8027460C68000CC0B2A8
:1023F0002188359009BA0598090CADF8D21000F083
:1024000099F9409044F2B770C0F200000DF5827A5D
:102410003F900DF1D2003E9044F64710C0F200000C
:1024200052463D9035A83C9044F63D10C0F2000065
:10243000479701463B9007980126CDE93910069849
:10244000389044F65B10C0F20000379040A83690F8
:1024500005204690CDE9440845F29800C0F20000FE
:1024600043900620429045F26800C0F2000041907F
:10247000584644F6B06BC0F2000B594601F0A8FA7A
:1024800044F2597B45F25C1845F24C19022DC0F21A
:10249000000BC0F20008C0F200091CD0023D02345B
:1024A0005846CDE93AA6D346CDE9414082460220BE
:1024B00044F6B061CDE9388636AACDE9369047A812
:1024C000C0F20001479701F083FA013D04F10104D5
:1024D0005046DA46E5D10DF1D8080A203690384644
:1024E00041460122FFF777FB0B9800F068FA3C4663
:1024F000099D0227DDF820A00DF58E7B4FF0010924
:1025000025AE9DF8A00000287FF4D3AEFBE68DF841
:102510001C010C9800F053FA284600F03EFA0B9884
:1025200000F04DFACEE6092000F030F9C0B20428E0
:102530007FF611AF26E70A2000F028F9C0B2042880
:102540007FF609AF1EE70B2000F020F9C0B2042887
:102550007FF601AF16E7032000F018F9C0B2042897
:102560007FF6F9AE0EE7042000F010F9C0B204289F
:102570007FF6F1AE06E70C2000F008F9C0B204289F
:102580007FF6E9AEFEE6084600F000F9C0B2042886
:102590007FF6E1AEF6E645F244000021C0F200000D
:1025A000002200F034FDFEDE45F20C00C0F2000017
:1025B00000F011FDFEDE44F62070C0F2000000F0D5
:1025C0000AFDFEDE45F254000121C0F200000122A6
:1025D00000F01DFDFEDE704701200021704711460E
:1025E0007047D4D4B0B584B0054600780238C2B282
:1025F000042A28BF0420C0B2DFE800F0030B101843
:10260000260045F2FD126C46C0F2000220460F2360
:1026100013E045F2F112C0F2000203E045F2E512C8
:10262000C0F200026C460C23204606E045F2D412AC
:102630006C46C0F200022046112301F06DFD2046D9
:1026400001F024F904B0B0BD45F2B8126C46C0F2F6
:10265000000220460A2301F05FFD45F2C41203A9DF
:10266000C0F200022046039501F09DF8204601F0DB
:102670000DF904B0B0BD006800F028B80146C0B242
:1026800020289CBF0120704745F24420C0F2000082
:1026900000F0A1FCFEDE0146C0B264289CBF002011
:1026A000704745F27820C0F2000000F094FCFEDE96
:1026B00009BAC0E90111022101807047007845F292
:1026C0009021C0F2000151F82000704710B584B08D
:1026D0000078012806D101AC45F2AC22C0F200021C
:1026E0000A2305E001AC45F2C822C0F20002102323
:1026F000204601F011FD204601F0C8F804B010BDDD
:10270000072884BF08207047DFE800F00406080AA5
:102710000C0E1012002070470120704702207047F5
:10272000032070470420704705207047062070473B
:102730000720704700787047014608200A78DFE8D4
:1027400002F023080A0C0E10121416181A1C1E2070
:10275000220007207047062070470520704704209C
:102760007047032070470220704700207047FC200C
:102770007047F8207047F4207047F0207047EC2035
:102780007047D820704748787047D4D4C2B2014609
:1027900009200C2A88BF7047DFE802F00707070707
:1027A0000710101010090B0D0F0008467047052088
:1027B000704706207047072070470820704740F296
:1027C00002210222A0F80B1000214172C28041F2C6
:1027D0000202C0F20242C0F802200170704742704B
:1027E000012202708A788270CA78C2700A790271F6
:1027F0004A7942718A798271B1F80720A0F80720DE
:10280000B1F80920A0F80920CA7A097BC2720173C5
:10281000704782700B88CA780380C2700A7902718F
:102820004A7942718A798271B1F80720A0F80720AD
:10283000B1F80920A0F80920CA7A097BC272017395
:1028400070470B880380C2708B780A79837002719D
:102850004A7942718A798271B1F80720A0F807207D
:10286000B1F80920A0F80920CA7A097BC272017365
:1028700070470B8803808B7883700271CB784A791C
:10288000C37042718A798271B1F80720A0F80720DD
:10289000B1F80920A0F80920CA7A097BC272017335
:1028A00070470B8803808B788370CB78C37042713C
:1028B0000B798A7903718271B1F80720A0F807209B
:1028C000B1F80920A0F80920CA7A097BC272017305
:1028D00070470B8803808B788370CB78C3700B793B
:1028E00003714B79437102720122C2718B79B1F885
:1028F00009208371A0F80920CA7A097BC27201738A
:1029000070470B8803808B788370CB78C3700B790A
:1029100003714B7943718B79837182720122427208
:10292000B1F80730CA7A097BA0F80730C272017388
:1029300070470B8803808B788370CB78C3700B79DA
:1029400003714B7943718B798371B1F80730A0F82B
:102950000730B1F80930097BC272A0F80930017361
:1029600070470B8803808B788370CB78C3700B79AA
:1029700003714B7943718B798371B1F80730A0F8FB
:102980000730B1F80930C97AA0F809300273C17272
:102990007047007870470078704710B5044640785B
:1029A00010B100F053FA01E000F04DFA2178012255
:1029B00001F01F0102FA01F1C0F80C1510BD10B5AD
:1029C0000446407810B100F041FA01E000F03BFA13
:1029D0002178012201F01F0102FA01F1C0F8081567
:1029E00010BDF0B583B0044600F053FA00F00100CA
:1029F0008DF8040000F049FA00F04EFA40F20100B0
:102A0000C2F20000007808B1002502E000F034FABC
:102A1000012501A800F02BFA002818BF00F037FAB2
:102A2000002D00F0A08000F034FA00F001008DF8D5
:102A3000040000F02AFA00F02FFA40F20000C2F27F
:102A40000000007808B1002502E000F004FA01253A
:102A500001A800F00CFA002818BF00F018FA002DA9
:102A600000F0818000F092F800F090F800F0EBF9AF
:102A70004FF48011C0F8081500F0E5F90326C0F8FE
:102A8000506700F0E0F900270021C0F84C774FF0C4
:102A9000022002901320C0F214000C22019001A821
:102AA0000C2500F068F800F0D1F90821C0F80C15E9
:102AB00000F0CCF9C0F80C6700F0C8F92021C0F88C
:102AC0000C1500F0C3F9C0F8146700F0BFF9C0F8A6
:102AD00010774FF48270ADF8080040F20310C0F296
:102AE00005100221CDE9007001A80022002300F0AA
:102AF0004EF800F0ABF94021C0F8081500F0A6F937
:102B0000C0F8186700F09FF94FF40001C0F80815ED
:102B100000F099F90126C0F85C6700F094F94FF4D1
:102B20008001C0F8081500F08EF9C0F8586700F071
:102B30008AF94FF08071C0F8081500F084F9C0F8E8
:102B4000606700F083F9C0F8005740F20610C0F249
:102B5000170020601620C0F2180060604FF48070EB
:102B6000208103B0F0BD0020208160604FF4007030
:102B7000206003B0F0BD80B582B003684068CDE945
:102B80000030684600F0B8F802B080BD704780B5EC
:102B900084B0B0F804C00068029002A8DDF818E024
:102BA000ADF80CC0CDF800E000F01AF804B080BD1C
:102BB00010B582B001AC204600F03BF940F20111A3
:102BC000C0F80012204600F034F90421C0F81015B6
:102BD000204600F02EF90321C0F8081502B010BD00
:102BE0002DE9F04782B0074601A89A461546894666
:102BF00000F024F939784FF6C0747A78C7F6FF747C
:102C000001F01F01002A18BF012241EA42112143AD
:102C1000C0F80815F878022818D101A800F00EF9BC
:102C20004FF0FF31C0F80C157879022820D039799F
:102C3000002818BF012001F01F0141EA40100443A1
:102C400001A800F0FBF8C0F8104518E0B97800289A
:102C500018BF012001F01F0141EA401040EA0406BC
:102C600001A800F0EBF8C0F80C6578790228DED1F5
:102C700001A800F0E3F84FF0FF31C0F8101501AFE4
:102C8000DDF82880384600F0D9F80721C0F8001593
:102C9000384600F0D3F8002D08BFBAF1000F05D078
:102CA00035B9BAF1000F03D002210BE0002109E091
:102CB0000621002D8AF0010218BF04210623002AF4
:102CC00008BF1946C0F8541545F2D82101AC4FFA97
:102CD00089F0C0F2000151F82050204600F0AEF813
:102CE000C0F82455204600F0A9F85FFA88F1C0F832
:102CF000C01502B0BDE8F0872DE9F04381B006466B
:102D0000684690460C4600F08FF831784FF6C0794F
:102D10007278C7F6FF7901F01F01002A18BF01225F
:102D200041EA421141EA0901C0F81415F77817B1D8
:102D300000F08CF801E000F086F8B178012201F093
:102D40001F018A40C0F8082541EA47106F46C0B20B
:102D500040EA0905384600F067F8C0F80C553846D7
:102D600000F062F87779022F02D14FF0FF310AE0CC
:102D700031793A46002F18BF012201F01F0141EAC4
:102D8000421141EA0901C0F81015684600F04CF8FC
:102D9000F579022D0AD14FF0FF31C0F808156846C9
:102DA00000F042F80821C0F8001516E0B1792A4673
:102DB000002D18BF012201F01F0141EA421141EA32
:102DC0000901C0F80815684600F02EF80821022D08
:102DD000C0F8001518BF022F1CD1002564F341056F
:102DE00045F2FC2164F382054FFA88F0C0F200013D
:102DF00064F3C3056C4651F82060204600F014F8D7
:102E0000C0F86C55204600F00FF8C0F8246501B0FA
:102E1000BDE8F0830125E1E74FF08040704741F2C3
:102E20000000C4F20000704742F20000C4F200004B
:102E3000704748F20000C4F20000704743F20000FF
:102E4000C4F2020070474FF0A040704740F20030DB
:102E5000C5F20000704740F200000121C2F20000FC
:102E600001707047016841F001010160704700780E
:102E7000B0FA80F04009704740F201000121C2F22F
:102E800000000170704700BE704772B6704762B6AE
:102E90007047EFF310807047704770477047B0B5C8
:102EA00086B00C46054601F09FFB90B90022042332
:102EB000D4E9060105920493CDE902220122019290
:102EC00045F24832C0F2000200926A4600F080FDEE
:102ED00010B1012006B0B0BD281D214606B0BDE8E6
:102EE000B04001F081BB4DF6E71049F2DE41CCF273
:102EF000FD60C6F2B061704770B58EB00C460546F5
:102F0000D1E906010C22CB6845F26031C0F2000124
:102F1000984708B101265BE0A86828B1019044F603
:102F20008B10C0F2000015E0D5E90060C1683046A2
:102F3000884749F2D942C1F21012514049F26472F5
:102F4000C7F2B002504008431BD144F6B1100196BD
:102F5000C0F20000039001A80290012602AAA06915
:102F6000E1690D960C9200220B920A9202220992BC
:102F700045F27032C0F20002089208AA00F028FD63
:102F800030BB44F65B1005F11801C0F200000322CB
:102F9000079002ABCDE9050105F11400049044F659
:102FA0007F10C0F20000039005F10C000290D4E9FC
:102FB00006010D920C9300230B93CDE9092345F2F2
:102FC0008432C0F20002089208AA00F001FD064611
:102FD00030460EB070BD8CB0D0E900E20024D0E9DC
:102FE00002C30425D0E90410CDE90A1008A905940C
:102FF00068460495CDE902440124019406AC00948E
:10300000CDE906E2CDE908C300F021F8FEDE8CB080
:103010000346CDE90012022008A90790069100217D
:103020000591CDE9030145F2B030C0F200006946D8
:10303000029044F65B10C0F200000B90CDE909014C
:1030400001A8089002A8194600F001F8FEDE88B039
:10305000D1E900C3D1E902210791CDE90532CDE9DB
:10306000030C45F25030C0F20000029001200190A4
:1030700001A801F0A4FCFEDE8EB08DE80F00022056
:103080000AA90990089100210791CDE9050145F2AF
:103090002840C0F2000045F25041049044F67510FB
:1030A000C0F20000C0F200010D9002A80C9044F69E
:1030B0007F10C0F200000B9068460A9004A8FFF74A
:1030C000C6FFFEDE70472DE9F04381B011F0030327
:1030D00084464FF0000018BFD3F1040E52D15FFABE
:1030E0008CF3082A1FD3A2F1080C60451BD84FF0BF
:1030F000013703FB07F50F580C1864686F40A7F100
:10310000013626EA070784EA0506A6F1013424EA17
:103110000606374317F0803F02D108306045EAD9F0
:10312000904200F2C1800C1801EB020EA2EB000CE1
:10313000002126460022AEEB06066518032E40F25B
:1031400082802E78F71A18BF01273A449E4216D083
:103150006E78F71A18BF01273A449E420FD0AE7816
:10316000F71A18BF01273A449E4208D0EF7804317D
:10317000FE1A18BF012632442E1D9F42DBD10121C9
:1031800013182CE0964588BF964601EB0E080023E5
:1031900074460D46A8EB0506032E50D92F785FFA2A
:1031A0008CF6B81B18BF01200344B74216D06878CC
:1031B000871B18BF01273B44B0420FD0A878871B5C
:1031C00018BF01273B44B04208D0E878043C0435DE
:1031D000871B18BF01273B44B042DBD101210846C1
:1031E000194601B0BDE8F0832F465FFA8CF617F858
:1031F000019BB9EB060018BF01200344B145EDD097
:1032000047451ED06878871B18BF01273B44B04252
:10321000E4D0A81C404514D0A878871B18BF01270C
:103220003B44B042DAD0E81C40450AD0E878043C80
:103230000435871B18BF01273B44B042CED0002C79
:10324000D2D170464BE7ACEB01045CB3294611F8D0
:10325000017BFE1A18BF012632449F423FF48FAF14
:1032600071451FD06978CF1A18BF01273A44994297
:103270003FF485AFA91C714514D0A978CF1A18BFA7
:1032800001273A4499423FF47AAFE91C714509D0CD
:10329000E978043C0435CF1A18BF01273A44994213
:1032A000D3D16CE700216BE7114600F023F8FEDE76
:1032B0008CB0CDE90001022008A9079006910021F9
:1032C0000591CDE9030145F2A040C0F2000001A93B
:1032D000029044F65B10C0F200000B90CDE90901AA
:1032E000684645F2B041089002A8C0F20001FFF71D
:1032F000AEFEFEDE8CB0CDE90001022008A90790E9
:10330000069100210591CDE9030145F2E440C0F2A8
:10331000000001A9029044F65B10C0F200000B907F
:10332000CDE90901684645F2F441089002A8C0F2CF
:103330000001FFF78CFEFEDE9AB0B1F5807FCDE98B
:10334000002302D801258C463EE0C1F1000E4FF467
:10335000807C8C4505D210F90C4014F1410F00F32C
:10336000EC800EEB0C04ACF10106012C2AD08E424D
:1033700006D200EB0C0515F9015C15F1410F21DCBB
:10338000ACF10206022C1DD08E4206D200EB0C05D9
:1033900015F9025C15F1410F14DCACF10306032CA6
:1033A00010D08E4206D200EB0C0515F9035C15F126
:1033B000410F07DCBCF1040C4FF0000504D0042CD5
:1033C000C7D101E00025B4460526002D45F223555E
:1033D000CDE9020C18BF0026059645F24536C0F22D
:1033E0000005C0F2000618BF35468A42049598BF12
:1033F0008B4226D98A424FF0030010A988BF13469A
:103400000F900E9100210D91CDE90B0145F24C502A
:10341000C0F2000004A90A9044F67F10C0F2000038
:1034200008931590CDE9130102A845F2645112905A
:1034300044F65B10C0F20001C0F20000119008A831
:10344000D9E09A4200F2DC80002A18BF914257D19D
:103450001A46002A069218BF8A4203D113468B42AD
:1034600043D13BE0A0F1010C01F1020ECC1C4D1C3C
:103470000E1D8A4206D20CEB020393F9013013F1C0
:10348000410FEBDC531E18BF954225D08B4204D26E
:103490001CF9027017F1410F1EDC931E18BF9645F0
:1034A0001AD08B4206D20CEB020717F9017C17F1F8
:1034B000410F11DCD31E18BF94420DD08B4206D2AF
:1034C0000CEB020717F9027C17F1410F04DC131F04
:1034D00002D096421A46CCD18B4206D145F20C401E
:1034E000C0F20000FFF777FDFEDEC5182E4616F984
:1034F000014BB4F1FF3FE2B209DD0792012148E040
:10350000A7D9865616F1400FA8BF1A46A1E708446E
:10351000864202D10025064603E06978AE1C01F020
:103520003F0502F01F01DF2A04D9864207D100249B
:10353000064608E045EA81101CE0002544E716F83D
:10354000014B04F03F0444EA8515F02A10D34FF4F0
:10355000E01202EA814186421ABF307800F03F0053
:10356000002041EA85110844B0F5881F02D1B5E773
:1035700045EA01308028079001D2012109E0B0F529
:10358000006F01D2022104E00421B0F5803F38BF72
:103590000321194410AA08A8CDE9083105210F918B
:1035A0000E9200220D92CDE90B1245F2E051C0F2CD
:1035B000000104AA0A9144F67F11C0F2000119919A
:1035C000CDE9171202A9169142F69F61C0F20001DF
:1035D000CDE9140144F24110C0F2000045F2086147
:1035E000139007A8129044F65B10C0F20000C0F2DE
:1035F0000001119006A810900AA8FFF728FDFEDE32
:10360000042010A90F900E9100210D91CDE90B011E
:1036100045F28450C0F2000004A90A9044F67F10DD
:10362000C0F200001790CDE9150102A8149044F6ED
:103630005B1001A9C0F200001390CDE9110145F221
:10364000A4516846C0F20001D5E72DE9F04F89B0DA
:103650000027002A00F09080834602A892460D467B
:103660001830019006E02544002EB2464FF00007C6
:1036700000F08180DBF80800007850B1DBE9000140
:103680000422CB6845F2C031C0F2000198470028FF
:103690006FD10A20012108905246CDE906010A2087
:1036A0002946CDE9047ACDE9025A06E0A0EB0902E9
:1036B00002A802992044C07D4944FFF704FD012877
:1036C0004ED10498079C084400F10109CDF81090F0
:1036D000A14502D2DDF80C8016E0DDF80C80204612
:1036E000C84538BF00200FD3052C49D2A0420BD1CA
:1036F0000298A9EB040601993044884233D001991D
:10370000224601F03BFA70B30598484528BF804532
:10371000CCD2DBF8080054460770AAEB0406B4FAD2
:1037200084F3B6FA86F2DBE900015B09520953EA39
:10373000020705D1A24528D92A5712F1410F24DDED
:10374000CB6829462246984798B9002F7FF48BAF63
:10375000A24521D9285710F1410F3FF784AF1BE054
:1037600005980490D5E7DBF80800741C012101706E
:10377000D3E7012700E00027384609B0BDE8F08F05
:1037800020460421FFF794FDFEDE28465146002224
:103790002346FFF7D1FDFEDE28465146224653461A
:1037A000FFF7CAFDFEDE2DE9F04F91B00446007A26
:1037B00040B1012061682072481C6060204611B051
:1037C000BDE8F08F16460D46D4E900120878400790
:1037D00019D4D1E9060345F2FE6145F2027CC0F23C
:1037E0000001002AC0F2000C08BF6146DB684FF000
:1037F000020208BF012298470028DAD1F268284661
:1038000021689047D6E75AB9D1E906010222CB6870
:1038100045F20071C0F2000198470028C9D1216823
:1038200001200DF10F038DF80F00D1E906028DE89C
:103830000D0091E8005CD1E90489D1E90837D1E9AC
:103840000A0291F830108DF8401004A9CDE904ABBC
:10385000CDE90E0245F2E460C0F20000F268CDE965
:103860000C370B9068460A902846CDE90889CDE9C7
:1038700006CE904700289CD1DDE90A010222CB68E0
:1038800045F2FC61C0F20001984793E7B0B50446E9
:10389000057A406808B30DB101251DE0012810D15B
:1038A000607A70B12168087840070AD4D1E906012E
:1038B0000122CB6845F20371C0F20001012598474F
:1038C00050B921680122D1E90601CB6845F20C51BB
:1038D000C0F20001984705462572002D18BF01254A
:1038E0002846B0BD80B582B000228029019203D263
:1038F0008DF80410012235E00222B1F5006F0AD2E2
:103900008B0962F39F118DF80510062161F35F1397
:103910008DF8043026E00B46B1F5803F62F39F132B
:103920000ED28DF806308B0962F39F13090B0E221D
:103930008DF8053062F31F118DF80410032211E099
:103940008DF807308B0962F39F138DF806300B0B4F
:1039500062F39F13F02242EA914104228DF8053070
:103960008DF8041001A9FFF770FE02B080BD70B59C
:1039700088B0019002AA91E8785045F2047110468F
:10398000C0F2000180E8785001A800F021F808B0EA
:1039900070BD0068FFF759BE0068FFF7A3BF70B5A0
:1039A00088B0006802AA019091E87850104645F26C
:1039B0000471C0F2000180E8785001A800F008F816
:1039C00008B070BD00680A46012100F044BFD4D49D
:1039D0002DE9F04F8DB003239768D2E904560DF11D
:1039E000180C8DF83030202301930023002F009312
:1039F000CDE90A568CE823000493029305EBC60335
:103A0000099300F09D80D468D2E900B94C4588BF85
:103A10004C46002C00F0BA80DBE90032CE68194633
:103A2000B047002840F0C08007F1100643F6C517E4
:103A30000025E846C0F2000756F8080C05F1010A17
:103A40000190307C8DF8300056F8040C0090002076
:103A5000B268DFE802F002041221F16819E00B9A63
:103A6000F168914280F0A8800A9800EBC102526888
:103A7000BA4210D150F831000AE0DDE9080188426D
:103A800009D000F1080108914168B94203D10068EA
:103A90000168012000E00020CDE902010020326829
:103AA000DFE802F002041221716819E00B9A7168D4
:103AB000914280F081800A9800EBC1025268BA42BC
:103AC00010D150F831000AE0DDE90801884209D040
:103AD00000F1080108914168B94203D1006801680A
:103AE000012000E00020CDE9040156F8100C012867
:103AF00008D10B9A56F80C1C914264D20A9800EB3C
:103B0000C10006E0DDE90801884263D000F1080148
:103B10000891011D00680A6841469047002843D17A
:103B2000A24535D2DDE906030BEBC502D2E902124C
:103B3000DB6898472436002855463FF47DAF33E0D4
:103B4000D2E900B94E4588BF4E46FEB1DBE90032EE
:103B5000CF681946B84738BB00276C4605EBC7014C
:103B600055F837004A6821469047E8B907F1010A3D
:103B7000B2450DD2DDE906030BEBC702D2E9021212
:103B8000DB68984700285746E8D00DE04FF0000A60
:103B9000D1450DD90BEBCA02DDE906035BF83A10FB
:103BA0005268DB68984718B101200DB0BDE8F08F6E
:103BB00000200DB0BDE8F08F45F24870C0F2000063
:103BC000FFF725FAFEDE45F23870C0F20000FFF77D
:103BD0001EFAFEDE45F20C40C0F20000FFF7FBF9D2
:103BE000FEDED4D42DE9F04F83B0DDE90C691F4629
:103BF00092460446C9B1D4F800E04FF02B081EF0FD
:103C0000010108BF4FF4881801EB090B5FEA4E7100
:103C100014D5BFB1791E07F0030C032914D200217B
:103C20005346BCF1000F36D14DE0D4F800E009F165
:103C3000010B4FF02D085FEA4E71EAD400274FF0D8
:103C4000000A44E000213EE0CDE90196ACEB070616
:103C5000002153461D785A78987805F0C00593F8EE
:103C60000390802D02F0C00208BF0131802A00F0CD
:103C7000C00008BF0131802809F0C00008BF013131
:103C8000802808BF013104330436E3D1DDE9019611
:103C9000BCF1000F17D0187800F0C000802808BFD2
:103CA0000131BCF1010F0ED0587800F0C00080281F
:103CB00008BF0131BCF1020F05D0987800F0C000B8
:103CC000802808BF01310BEB0700A0EB010BA068B7
:103CD000012815D1E5685D4512D95FEA0E7002969C
:103CE00023D494F83010A5EB0B060020032908BF5D
:103CF0000121DFE801F0390236023046002633E0C8
:103D00002046414652463B4600F080F820B101264D
:103D1000304603B0BDE8F08FE1694A46A069CB6840
:103D2000314603B0BDE8F04F18470126302084F833
:103D3000306041466060204652463B4600F066F8DF
:103D40000028E5D194F83010A5EB0B0600200329DC
:103D500008BF0121DFE801F03502320230460026BB
:103D60002FE0711C70084E08451C013D07D0D4E9B6
:103D700006026168126990470028F6D0C7E720461E
:103D8000414652463B46D4F804B000F03FF80028C4
:103D9000BDD1D4E906014A46CB680299984700286C
:103DA000B5D1D4E90654771C0126013F2CD02269F5
:103DB0002846594690470028F7D0A9E7711C70089B
:103DC0004E08451C013D07D0D4E90602616812691E
:103DD00090470028F6D09AE7D4E906014A46CB6816
:103DE0000299D4F80480984700287FF490AFD4E972
:103DF0000674751C0126013D06D0226938464146ED
:103E000090470028F7D083E7002681E770B51C466D
:103E100015460646B1F5881F06D0D6E90602126996
:103E2000904708B1012070BD3DB1D6E90601224698
:103E3000CB682946BDE870401847002070BDD4D437
:103E40002DE9F04F81B0D0F808E082460069914634
:103E50008846BEF1010F0FD188B9B9F1000F00F00B
:103E6000AB80A9F1010109F00300032960D2002110
:103E7000424600287CD1A0E0002800F0B380B9F1D0
:103E8000000F4ED0DAF8140008EB09010022474673
:103E9000431C46463C4614F9015BB5F1FF3FE8B2CE
:103EA00028DC8C4205D07D78BC1C05F03F052746F8
:103EB00001E000250F4600F01F0BDF2807D98F42D5
:103EC00008D017F8014B04F03F0C3C4605E045EAEA
:103ED0008B100FE04FF0000C0F464CEA8515F028D0
:103EE00006D38F4210D017F8010B00F03F000DE011
:103EF00045EA0B302746013B51D0901BB94200EBFD
:103F000007023E46C6D14EE0002027464FF4E0149B
:103F100004EA8B4444EA85152844B0F5881FEAD1A9
:103F200041E00022BEF1000F41D1DAE906015EE076
:103F3000A0EB0903002142461778567807F0C00726
:103F40009578D478802F06F0C00708BF0131802F04
:103F500005F0C00708BF0131802F04F0C00708BF7B
:103F60000131802F08BF013104320433E4D120B382
:103F7000137803F0C003802B08BF013101281CD047
:103F8000537803F0C003802B08BF0131022814D0FE
:103F9000907800F0C000802808BF01310DE0B0F536
:103FA000881F40F076804A46BEF1000FBDD0914692
:103FB000B9F1000F7FF455AF0021DAF80C00A9EB3E
:103FC000010181420ED2B9F1000F16D0A9F1010111
:103FD00009F0030C032912D200214346BCF1000F63
:103FE0002FD146E0DAF81C104A46DAF81800CB6800
:103FF000414601B0BDE8F04F1847002139E0ACEB75
:104000000907002143461E785D7806F0C0069C78BB
:10401000DA78802E05F0C00608BF0131802E04F04A
:10402000C00608BF0131802E02F0C00208BF013176
:10403000802A08BF013104330437E4D1BCF1000FFA
:1040400017D01A7802F0C002802A08BF0131BCF1F3
:10405000010F0ED05A7802F0C002802A08BF013149
:10406000BCF1020F05D09A7802F0C002802A08BF86
:1040700001319AF83030A1EB09010E180020DA1E48
:1040800018BF1A46DFE802F00E020B023046002687
:1040900008E0002A18BF4A452CD1404633E0711C85
:1040A00070084E08441C013C08D0DAE90602DAF830
:1040B0000410126990470028F5D013E0DAE90601F0
:1040C0004A46CB684146DAF80470984750B9DAE9B5
:1040D00006450136013E09D02A69204639469047F7
:1040E0000028F7D0012001B0BDE8F08F002001B01A
:1040F000BDE8F08F4A4504D218F9020010F1400FD4
:10410000CBDA0020002200280CBF4A468046BEF1D0
:10411000000F7FF44CAF08E770B50D460646D1E9B5
:1041200006011C46CB681146224698473072B4FA05
:1041300084F0400970720020C6E9005070BDD4D4EC
:104140002DE9F04F81B00C460546D1E906010A6918
:104150002721904718B1012001B0BDE8F08F2D68EC
:10416000A5F109001E2816D802277426DFE800F002
:1041700034101717251717171717171717171717AB
:1041800017171717171717171715171717171500DA
:1041900002276E2613E05C2D01D102271BE046F2B8
:1041A00028302946C0F2000000F069F840B92846DE
:1041B00000F056F920B10127F0E7022772260BE044
:1041C00045F001004FF00509B0FA80F00327072100
:1041D00081EA900000902E464FF01C0B4FF0010A30
:1041E00002254FF0040806E0D4E906021269904760
:1041F00000287FF4B0AF38465C210127DFE800F0EB
:1042000037030206F0E700273146EDE75FFA89F051
:10421000DFE800F02D03081A1F2429F0FF097D2193
:104220000327E1E7009A0BEA820026FA00F000F08B
:104230000F0000F157010A2838BF00F1300192B198
:10424000013A00920327CFE765F307097B21032793
:10425000CAE70327752167F30709C5E768F307096C
:104260005C210327C0E76AF307090327BCE7D4E909
:1042700006010A69272101B0BDE8F04F104780B55B
:10428000B1F5006F05D26FF0070202EAD1021044C7
:1042900031E0B1F5803F10D26FF01F0202EB9113B5
:1042A0005A091E2A42D80344D0F8042193F8183141
:1042B0009A4245D9D0F800011BE06FF00F0202EBE3
:1042C0001132B2F5807F40D2024492F8F8C4D0F89F
:1042D0000C21C1F3851343EA8C1393423FD2D0F8EB
:1042E00008C1D0F814211CF803309A423CD9D0F808
:1042F000100100EBC30001F03F014FF0010EC1F1CE
:104300002002D0E900C3B1F120000EFA01F12EFA2B
:1043100002F258BF0EFA00F258BF002103EA020071
:1043200001EA0C01084318BF012080BD45F28070EE
:104330001946C0F200004FF47872FEF768FEFEDE08
:1043400045F29070C0F2000012E045F2A0701146F4
:10435000C0F200004FF48072FEF759FEFEDE45F217
:10436000B070C0F2000003E045F2C070C0F200007F
:104370001946FEF74CFEFEDE2DE9F04F81B01FFA24
:1043800080FAA2B3DDF828C001EB42084FEA1A29EF
:104390004FF0000E4F7872460C780231BE444C4507
:1043A00022D1964552D3E64555D89C1804EB070B0D
:1043B000DFB12546C6B215F8012BB24237D05D45B4
:1043C00013D06278B24232D0A21C5A450DD0A278E6
:1043D000B2422CD0E21C5A4507D0221DE478043F9B
:1043E000B4421446E4D122E001D84145D2D10C9820
:1043F000F8B10B9E31180120324612F8013B5FB232
:10440000002F04D41646BAEB030A0BD512E08A42F9
:1044100015D0727807F07F03023642EA0323BAEB25
:10442000030A07D480F001008E42E5D102E00020AB
:1044300000E0012000F0010001B0BDE8F08F45F27E
:104440000C40C0F20000FEF7C6FDFEDE10467146CD
:10445000FEF750FFFEDE70466146FEF729FFFEDEE6
:1044600080B584B0B0F5803F14D245F647124FF4C2
:104470009D71C0F2000240F22513CDE9003245F6ED
:104480002203029145F2D071C0F20001C0F2000394
:10449000292215E0B0F5003F16D245F66D324FF4F3
:1044A000CC71C0F20002A623CDE9003245F6C72345
:1044B000029145F68121C0F20001C0F200032322DF
:1044C000FFF75AFF04B080BD40F2E25140F2E262D1
:1044D000CFF6FD71C0F20B02014491420FD341F2BD
:1044E0001F4140F61F42CFF6FD710144914221BFAA
:1044F00043F25E11CFF6FD7101440E2902D2002075
:1045000004B080BD4FF6FE714BF61E02C0F21F01D3
:10451000C0F2020201409142F1D045F62911CFF6D6
:10452000FD710144292921BF44F6CB01CFF6FD716D
:1045300001440B29E3D3A0F560204FF60F62A0F5EC
:10454000F8710020C0F20202914288BF012004B03D
:1045500080BDB0B584B00C460546D1E906010F22F6
:10456000CB6846F62011C0F2000198478DF808008C
:1045700046F63012002003A90094C0F200028DF824
:104580000900019068460395FFF70DF901989DF821
:10459000084018B30CB101241EE0012811D19DF888
:1045A000090070B10099087840070AD4D1E90601E2
:1045B0000122CB6845F20371C0F200010124984743
:1045C00050B900990122D1E90601CB6845F20C519E
:1045D000C0F20001984704468DF80840002C18BF2F
:1045E0000124204604B0B0BDB0B5A2B08C46096825
:1045F000CA0609D40068890648D40121624622B05F
:10460000BDE8B04000F027B900680DF1080E812226
:10461000002300F00F0101F157040A2938BF01F10E
:1046200030040EEB0201B3EB101F01F8024C71D005
:10463000040904F00F0404F157050A2C38BF04F1F3
:104640003005B3EB102F01F8035C78D0040A04F0B6
:104650000F0404F157050A2C38BF04F13005B3EB01
:10466000103F01F8045C72D0040B043A04F00F040C
:1046700004F157050A2C38BF04F1300501F8055C38
:10468000010CB3EB104F0846C3D13FE00DF1080E0B
:104690008122002300F00F0101F137040A2938BFFD
:1046A00001F130040EEB0201B3EB101F01F8024CD4
:1046B00030D0040904F00F0404F137050A2C38BF88
:1046C00004F13005B3EB102F01F8035C37D0040A76
:1046D00004F00F0404F137050A2C38BF04F130054B
:1046E000B3EB103F01F8045C31D0040B043A04F042
:1046F0000F0404F137050A2C38BF04F1300501F826
:10470000055C010CB3EB104F0846C3D1501E812845
:1047100005D318E0511E901E0A46812813D2C2F11B
:10472000810145F21A627044C0F20002CDE9000135
:10473000604601210223FFF755FA22B0B0BDD01E1A
:10474000023A8128EBD38021FEF7D4FDFEDE101F54
:10475000033A8128E3D3F6E780B5A2B002788C460D
:1047600002F00F0303F157000A2B38BF03F13000AA
:104770000023B3EB121F0BD0130903F15701A02A3A
:1047800038BF03F130018DF886107E22022301E04C
:104790007F2201238DF8870002A8104445F21A6297
:1047A000CDE90003C0F20002604601210223FFF7B9
:1047B00019FA22B080BD10B5A2B000880DF1080E24
:1047C0008C468123182104460EEB030261F35F043B
:1047D00002F8024CC0F34E04D4B161F35F0402F856
:1047E000034CC0F38D04CCB161F35F0402F8044CB8
:1047F000C0F3CC04BCB161F35F0402F8054CC0F314
:104800000B10043B0028DED1581E81280FD31EE078
:10481000591E981E0B46812809D318E0D81E023B6A
:10482000812804D313E0181F033B81280FD2C3F162
:10483000810145F218627044C0F20002CDE9000126
:10484000604601210223FFF7CDF922B010BD80217F
:10485000FEF750FDFEDE2DE9F04F8FB045F21C6EE5
:10486000174648F21F520D4642F210718842C5F2B7
:10487000EB12C0F2000E39D341F259794EF2FF0823
:104880000DF1140B0024CDF2B7194FF0640AC0F2F9
:10489000F558CDE90357A0FB09560BEB0403043C84
:1048A00040454FEA563505FB11062846B7B2A7FB2F
:1048B000027C4FEA5C1707FB1A663EF81770A3F8F4
:1048C0002370B6B23EF81660A3F82560E3D82846F8
:1048D000DDE90357273463280BDC03460A2B17DB7B
:1048E000A01E3EF8133005AA135215E027246328B2
:1048F000F3DD83B2023CA3FB026364265B0903FB86
:10490000160005AE80B23EF8100030530A2BE7DAED
:10491000601E05AA30331354C0F1270305AA1044C2
:1049200045F24532CDE90003C0F20002384629467F
:104930000023FFF757F90FB0BDE8F08F00780A4663
:104940000121FFF788BF0A4601680029084648BFD1
:104950004842C943C90FFFF77EBF00680A460121DC
:10496000FFF779BF084645F25871C0F200010222F4
:10497000FFF766BAD0E90020C368104618470B4617
:10498000D0E900121846FFF75BBA2DE9F04186B076
:10499000D0F800E06A46D1E906C113469EE8F1016D
:1049A00083E8F1016046FFF713F806B0BDE8F08137
:1049B00000680B46D0E900121846FFF741BA8CB0E8
:1049C0000190FEF762FA00F04FF8F8B944F699202A
:1049D0000291C0F2000046F65411049001A8039021
:1049E00002A8059001200B9003A80A900020CDE9B1
:1049F00008000220079046F64410C0F2000006AA04
:104A0000069005A8C0F20001FEF7E2FFFEF73BFAB0
:104A1000FEE7002A04BF002070472DE9F04184B072
:104A200007680C4603920520CDE9017101A91646DD
:104A300000F030F880B10DF10408864210D305462D
:104A40000390301A414604440520CDE9017400F07A
:104A500021F800282E46F0D1002004B0BDE8F081F6
:104A6000012004B0BDE8F08180B584B0032001A925
:104A700003900420029045F2C830C0F2000001907B
:104A8000012000F007F801460130B0FA80F040093B
:104A900004B080BDABBE70470068FEF72DBA70470A
:104AA00080B582B0006800227F29019207D88DF876
:104AB0000410012201A9FFF7ACFF02B080BDB2EBE8
:104AC000D12F0FD102228B0962F39F118DF80510AF
:104AD000062161F35F138DF8043001A9FFF799FFF8
:104AE00002B080BD0022B2EB114F16D102220B465C
:104AF00062F39F138DF806308B09090B62F39F1345
:104B00000E2262F31F118DF805308DF80410032278
:104B100001A9FFF77EFF02B080BD02220B4662F3BF
:104B20009F138DF807308B0962F39F138DF80630C1
:104B30000B0B62F39F13F02242EA914104228DF89D
:104B400005308DF8041001A9FFF763FF02B080BDA6
:104B500070B588B0006802AA019091E878501046BC
:104B600046F65411C0F2000180E8785001A8FEF723
:104B70002FFF08B070BD0068FFF74BBF2DE9F04173
:104B80002AB3A2F1010EC2F1000C0023CC5CC55C7B
:104B9000A5421FD19E451AD000EB0308CF187C78A0
:104BA00098F80150A54215D10CEB0306B41C0ED0A9
:104BB000BC7898F80250A5420CD1F41C07D0FC78C0
:104BC00098F80350A54205D104339A42DED1002063
:104BD000BDE8F081281BBDE8F081F0B582B3531E1B
:104BE00002F0030C032B04D20022BCF1000F19D1F8
:104BF00026E0ACEB020E4B1C441C6FF003029D1828
:104C0000A7180432EE78FE702E793E716E797E71AF
:104C1000AD79BD710EEB02050435F0D10432BCF163
:104C2000000F0DD08B5CBCF1010F835408D0531CD6
:104C3000BCF1020FCF5CC75402D00232895C8154B0
:104C4000F0BD10B5002908BF10BD4B1E01F0030CCC
:104C5000032B01D200210FE0ACEB010E411C6FF0E1
:104C60000303CC180433A27162712271E2700EEB5F
:104C700003040434F5D1191DBCF1000F1CBF4254CC
:104C8000BCF1010F00D110BD0844BCF1020F42700D
:104C900018BF827010BD1346D2B2042938BFFFF787
:104CA000D0BF10B5A1F1040E42EA0363012443EA28
:104CB000024304EB9E0443EA022314F003040AD0E7
:104CC0008446012C4CF8043B0AD174466046BEF180
:104CD0000C0F14D21CE00C46BEF10C0F18D30EE0E2
:104CE000022C436003D10830A1F1080403E0836083
:104CF0000C30A1F10C048446BEF10C0F08D3C0E9BE
:104D00000033103CC0E902331030032CF7D884463E
:104D100001F00301BDE810406046FFF792BF00229A
:104D2000FFF78FBF0022FFF7B6BF00F055F840F243
:104D3000040040F20001C2F20000C2F20001814210
:104D400014D240F200010022C2F2000141F8042B0B
:104D500081423CBF41F8042B814207D241F8042B29
:104D6000814203D241F8042B8142EFD340F200008C
:104D700040F20001C2F20000C2F2000181421CD2E6
:104D800046F66C1140F20002C0F20001C2F20002CD
:104D90000B6842F8043B82420FD24B6842F8043B56
:104DA00082423EBF8B6842F8043B824205D2CB6808
:104DB000103142F8043B8242EAD34EF68850CEF2DC
:104DC0000000016841F47001016000F001F8FEDEAE
:104DD000FDF74CF9FEDEFEE77047704604210842FD
:104DE00002D1EFF3088002E0EFF30980FFE7FEE76E
:104DF00063616C6C656420604F7074696F6E3A3AE1
:104E0000756E77726170282960206F6E2061206056
:104E10004E6F6E65602076616C75657372632F6C82
:104E20006962636F72652F6F7074696F6E2E727333
:104E3000F04D00002B0000001B4E0000150000008C
:104E40007A010000150000000000000000000000D2
:104E50002F55736572732F63687269732F6465765B
:104E60002F706572736F6E616C2F6E726635322FA4
:104E70006D64702D6C696E6B2D72732F6E7266355A
:104E8000322D6573622F7372632F6C69622E727399
:104E9000504E00004000000021020000050000000C
:104EA000504E0000400000002202000005000000FB
:104EB000051B00000400000004000000D11B0000DE
:104EC000071B0000AB1B0000617373657274696F90
:104ED0006E206661696C65643A206368616E6E6518
:104EE0006C203C3D20313030696E646578206F75F0
:104EF00074206F6620626F756E64733A2074686503
:104F0000206C656E206973206E726635322D726179
:104F100064696F2F7372632F726164696F2E72738D
:104F2000C84E000020000000084F000018000000DC
:104F3000DC0000000700000063616C6C65642060A9
:104F40004F7074696F6E3A3A756E77726170282986
:104F500060206F6E206120604E6F6E65602076610C
:104F60006C75657372632F6C6962636F72652F6F06
:104F70007074696F6E2E7273384F00002B00000042
:104F8000634F0000150000007A01000015000000CA
:104F900063616C6C65642060526573756C743A3A39
:104FA000756E77726170282960206F6E20616E20A7
:104FB00060457272602076616C7565006920000042
:104FC00000000000010000005345000063616C6CAC
:104FD000656420604F7074696F6E3A3A756E7772CF
:104FE0006170282960206F6E206120604E6F6E65B1
:104FF000602076616C75657372632F6C6962636F94
:1050000072652F6F7074696F6E2E7273CC4F0000D3
:105010002B000000F74F0000150000007A0100008F
:10502000150000000000000000000000000000006B
:10503000736E69666665722F7372632F6D61696E38
:105040002E72730030500000130000006700000053
:105050001400000030500000130000006700000042
:105060002C0000005B205D20645000000100000067
:1050700065500000010000006550000001000000C4
:1050800065500000010000006550000001000000B4
:105090006650000002000000010000000000000057
:1050A00020000000000000000300000000000000DD
:1050B00003000000000000000300000001000000E9
:1050C00001000000200000000800000003000000B4
:1050D00000000000000000000200000003000000CB
:1050E000010000000200000020000000000000009D
:1050F00003000000000000000300000000000000AA
:105100000300000001000000030000002000000078
:105110000000000003000000000000000300000089
:105120000000000003000000010000000400000077
:105130002000000008000000030000000000000044
:105140000000000010000000030000004C510000AF
:105150000000000065500000010000000100000098
:105160000000000020000000080000000300000014
:10517000000000000000000002000000030000002A
:10518000496E697469616C6973696E67202E2E2E91
:105190000A5374617274696E67202E2E2E0A45724E
:1051A000726F723A200A00009E5100000700000052
:1051B000A551000001000000526164696F457272E0
:1051C0006F720000D72500000400000004000000FA
:1051D00077260000526563656976654E6F74537477
:1051E000617274656454784275666665724275735F
:1051F0007952784275666665724275737953746147
:105200006E64627952657175697265646E72663535
:10521000322D6573622F7372632F70726F746F63B8
:105220006F6C2E7273617373657274696F6E206632
:1052300061696C65643A206C656E677468203C3DFA
:1052400020333200255200001E0000000C520000E6
:105250001900000014000000050000006E726635A1
:10526000322D726164696F2F7372632F667265717C
:1052700075656E63792E7273C84E000020000000C1
:105280005C5200001C000000090000000500000046
:105290000000000001000000030000000400000006
:1052A00005000000060000000F00000057726F6E3E
:1052B000675374617465000029207768656E2073F8
:1052C0006C6963696E6720604275666665724E6FD1
:1052D00074446566696E65640000000200000004A5
:1052E0000000000800000010000000200000004046
:1052F000000000800000000A0000001400F004001C
:1053000000D0090000B013000050270000F03A0060
:1053100000A04E0000C075000000800000009D004D
:105320000000E5000000EB0000903A010000D6010B
:105330000000B00300000004000040070000000F60
:1053400000000010602E2E004553000002000000F7
:105350009D2E00000000000001000000E72E00006C
:1053600070616E69636B65642061742027272C204F
:105370006C530000010000006D53000003000000AA
:105380003A00000045530000000000008053000078
:1053900001000000805300000100000020627574CD
:1053A0002074686520696E64657820697320000048
:1053B000E84E0000200000009C5300001200000096
:1053C00020202020203C3D203A74740063616C6CE6
:1053D000656420604F7074696F6E3A3A756E7772CB
:1053E0006170282960206F6E206120604E6F6E65AD
:1053F000602076616C75657372632F6C6962636F90
:1054000072652F6F7074696F6E2E7273CC530000CB
:105410002B000000F7530000150000007A01000087
:10542000150000003A200000455300000000000075
:1054300024540000020000007372632F6C696263E1
:105440006F72652F726573756C742E727300000035
:1054500038540000150000008D0400000500000015
:105460007372632F6C6962636F72652F736C69630B
:10547000652F6D6F642E7273696E64657820206F7E
:105480007574206F662072616E676520666F72208A
:10549000736C696365206F66206C656E6774682045
:1054A00078540000060000007E5400002200000036
:1054B0006054000018000000190A000005000000F8
:1054C000736C69636520696E6465782073746172BA
:1054D0007473206174202062757420656E6473207B
:1054E00061742000C054000016000000D654000073
:1054F0000D00000060540000180000001F0A0000AA
:105500000500000020286279746573202973726396
:105510002F6C6962636F72652F7374722F6D6F6485
:105520002E72735B2E2E2E5D6279746520696E6417
:10553000657820206973206F7574206F6620626F14
:10554000756E6473206F66206000000028550000AF
:105550000B0000003355000016000000445300000B
:10556000010000000D5500001600000003080000B7
:1055700009000000626567696E203C3D20656E642D
:1055800020280000745500000E000000C4530000E5
:1055900004000000B8520000100000004453000056
:1055A000010000000D550000160000000708000073
:1055B00005000000206973206E6F7420612063680D
:1055C000617220626F756E646172793B206974202C
:1055D000697320696E736964652029206F66206095
:1055E000285500000B000000B45500002600000004
:1055F0000455000008000000DA5500000600000015
:1056000044530000010000000D550000160000008A
:10561000140800000500000030623078303030316E
:10562000303230333034303530363037303830394E
:105630003130313131323133313431353136313746
:10564000313831393230323132323233323432352C
:105650003236323732383239333033313332333312
:1056600033343335333633373338333934303431F8
:1056700034323433343434353436343734383439DE
:1056800035303531353235333534353535363537D6
:1056900035383539363036313632363336343635BC
:1056A00036363637363836393730373137323733A2
:1056B0003734373537363737373837393830383188
:1056C000383238333834383538363837383838396E
:1056D0003930393139323933393439353936393766
:1056E000393839399B2E00000C00000004000000FE
:1056F0004B360000E53800006F3900002C0A2C20E2
:10570000280A282CC5300000040000000400000016
:1057100093390000993900009F3900000000000013
:105720007372632F6C6962636F72652F666D742F7D
:105730006D6F642E72730000205700001600000089
:10574000560400002800000020570000160000004A
:105750006204000011000000282900000000000081
:105760007372632F6C6962636F72652F756E696304
:105770006F64652F626F6F6C5F747269652E7273F0
:105780006057000020000000270000001900000002
:1057900060570000200000002800000020000000EA
:1057A00060570000200000002A00000019000000DF
:1057B00060570000200000002B00000018000000CF
:1057C00060570000200000002C00000020000000B6
:1057D00000010305050606030706080809110A1C4F
:1057E0000B190C140D120E0D0F04100312121309D5
:1057F00016011705180219031A071C021D011F16AE
:1058000020032B042C022D0B2E0130033102320118
:10581000A702A902AA04AB08FA02FB05FD04FE03D5
:10582000FF09AD78798B8DA23057588B8C901C1D59
:10583000DD0E0F4B4CFBFC2E2F3F5C5D5FB5E28411
:105840008D8E9192A9B1BABBC5C6C9CADEE4E5FF87
:1058500000041112293134373A3B3D494A5D848EA8
:1058600092A9B1B4BABBC6CACECFE4E500040D0E0E
:1058700011122931343A3B4546494A5E64658491A8
:105880009B9DC9CECF0D112945495764658D91A9BE
:10589000B4BABBC5C9DFE4E5F0040D114549646540
:1058A000808184B2BCBEBFD5D7F0F183858BA4A61E
:1058B000BEBFC5C7CECFDADB4898BDCDC6CECF4977
:1058C0004E4F57595E5F898E8FB1B6B7BFC1C6C7FD
:1058D000D71116175B5CF6F7FEFF800D6D71DEDFEA
:1058E0000E0F1F6E6F1C1D5F7D7EAEAFBBBCFA1628
:1058F000171E1F46474E4F585A5C5E7E7FB5C5D473
:10590000D5DCF0F1F572738F747596972F5F262EA4
:105910002FA7AFB7BFC7CFD7DF9A409798308F1F59
:10592000C0C1CEFF4E4F5A5B07080F10272FEEEF76
:105930006E6F373D3F42459091FEFF536775C8C972
:10594000D0D1D8D9E7FEFF00205F2282DF04824455
:10595000081B04061181AC0E80AB351E1580E003D8
:10596000190801042F043404070301070607110A6C
:10597000500F1207550802041C0A09030803070305
:10598000020303030C0405030B06010E15053A037D
:1059900011070605100757070207150D50044303AA
:1059A0002D03010411060F0C3A041D255F206D0420
:1059B0006A2580C80582B0031A0682FD03590715BF
:1059C0000B1709140C140C6A060A061A0659072B41
:1059D00005460A2C040C040103310B2C041A060B97
:1059E0000380AC060A061F414C042D0374083C03D7
:1059F0000F033C0738082B0582FF1118082F112DC3
:105A0000032010210F808C048297190B15889405B0
:105A10002F053B07020E180980B030740C80D61A8F
:105A20000C0580FF0580B605240C9BC60AD23010F9
:105A3000848D033709815C1480B80880C730350431
:105A40000A06380846080C06740B1E035A04590946
:105A50008083181C0A16094808808A06ABA40C1714
:105A60000431A10481DA26070C050580A511816D9A
:105A70001078282A064C04808D0480BE031B030F77
:105A80000D0006010103010402080809020A050BC2
:105A90000210011104120513111402150217021944
:105AA000041C051D0824016A036B02BC02D102D448
:105AB0000CD509D602D702DA01E005E102E802EED0
:105AC00020F004F906FA020C273B3E4E4F8F9E9EB3
:105AD0009F060709363D3E56F3D0D10414183637D9
:105AE0005657BD35CECFE01287898E9E040D0E111C
:105AF000122931343A4546494A4E4F64655A5CB6DC
:105B0000B71B1CA8A9D8D909379091A8070A3B3E12
:105B100066698F926F5FEEEF5A629A9B2728559DB8
:105B2000A0A1A3A4A7A8ADBABCC4060B0C151D3A2E
:105B30003F4551A6A7CCCDA007191A22253E3FC547
:105B4000C604202325262833383A484A4C5053555A
:105B500056585A5C5E606365666B73787D7F8AA475
:105B6000AAAFB0C0D00C72A3A4CBCC6E6F5E227B68
:105B70000503042D036504012F2E80821D03310FC0
:105B80001C0424091E052B0544040E2A80AA0624A1
:105B90000424042808340B018090813709160A0870
:105BA0008098390363080930160521031B0501405D
:105BB00038044B052F040A070907402027040C0965
:105BC00036033A051A07040C07504937330D3307DB
:105BD0002E080A81261F808128082A808617094EF0
:105BE000041E0F430E19070A0647092709750B3FC4
:105BF000412A063B050A0651060105100305808B64
:105C0000602048080A80A65E22450B0A060D13395B
:105C1000070A362C041080C03C64530C0180A04558
:105C20001B4808531D398107460A1D03474937039E
:105C30000E080A0639070A81361980C7320D839B80
:105C400066750B80C48ABC842F8FD18247A1B9822C
:105C500039072A040260260A460A28051382B05B27
:105C6000654B0439071140041C97F80882F3A50D11
:105C7000811F3103110408818C89046B050D030910
:105C80000710936080F60A73086E1746809A140C0A
:105C9000570919808781470385420F1585502B804E
:105CA000D52D031A040281703A0501850080D72999
:105CB0004C040A04028311444C3D80C23C0601049A
:105CC00055051B3402810E2C04640C560A0D035D2D
:105CD000033D391D0D2C040907020E06809A83D658
:105CE0000A0D030B05740C59070C140C0438080A30
:105CF0000628081E527703310380A60C14040305FE
:105D0000030D06856A0000000000C0FBEF3E0000A6
:105D10000000000E00000000000000000000000075
:105D20000000F8FFFBFFFFFF070000000000001469
:105D3000FE21FE000C0000000200000000000050E8
:105D40001E2080000C000040060000000000001033
:105D50008639020000002300BE2100000C0000FC78
:105D600002000000000000D01E20C0000C00000057
:105D7000040000000000004001208000000000003E
:105D800011000000000000C0C13D60000C000000D8
:105D90000200000000000090443060000C00000091
:105DA00003000000000000581E2080000C000000CE
:105DB00000845C8000000000000000000000F2078A
:105DC000807F000000000000000000000000F21FC3
:105DD000003F000000000000000000030000A002DF
:105DE000000000000000FE7FDFE0FFFEFFFFFF1F5E
:105DF00040000000000000000000000000E0FD6620
:105E0000000000C301001E0064200020000000000C
:105E1000000000E00000000000001C0000001C006A
:105E200000000C0000000C00000000000000B03F6B
:105E300040FE0F20000000000038000000000000BD
:105E40006000000000020000000000008701040E56
:105E500000008009000000000000407FE51FF89F5F
:105E6000000000000000FF7F0F0000000000F0179E
:105E70000400000000F80F00030000003C3B00009D
:105E80000000000040A303000000000000F0CF006D
:105E90000000F7FFFD211003FFFFFFFFFFFFFFFBE7
:105EA00000100000000000000000FFFFFFFF0100E5
:105EB00000000000008003000000000000000080DF
:105EC00000000000FFFFFFFF0000000000FC0000DA
:105ED0000000000600000000000000000080F73F06
:105EE000000000C0000000000000000000000300EF
:105EF000440800006000000030000000FFFF038045
:105F000000000000C03F000080FF03000000000010
:105F1000070000000000C83300000000200000005F
:105F200000000000007E6600081000000000001065
:105F30000000000000009DC1020000000030400091
:105F400000000000202100000000004000000000D0
:105F5000FFFF0000FFFF0000000000000000000144
:105F6000000000020003000000000000000000002C
:105F70000000000000000000000000000000000021
:105F80000400000500000000000000000600000002
:105F9000000000000007000008090A000B0C0D0EAD
:105FA0000F0000101112000013141516000017182E
:105FB000191A1B001C0000001D0000000000001E3C
:105FC0001F202100000000002200230024252600BD
:105FD000000000270000000000000000000000009A
:105FE00000000000000000000000000000000000B1
:105FF00000000000000000000000000000000000A1
:106000000000000000000000000000000000000090
:106010000000000000000000000000000000000080
:106020000000000000000000000000000000000070
:106030000000000000000000000000000000000060
:1060400000000028290000000000000000000000FF
:1060500000000000002A2B000000000000000000EB
:106060000000000000000000000000000000000030
:106070000000000000000000000000000000000020
:10608000000000000000000000002C0000000000E4
:10609000000000000000000000000000002D2E00A5
:1060A000002F0000000000000000000000000000C1
:1060B00000000000000000000000000000000000E0
:1060C000303132000000000000000000000000003D
:1060D0000000000000000000330000002900000064
:1060E000000000340000000000000000000000007C
:1060F0000000000000000000000000350036000035
:10610000000000000000000000000000000000008F
:10611000000000000000000037380000383838392F
:10612000000000000000000000000000000000006F
:10613000000000000000000000000000000000005F
:10614000000000000000000000000000000000004F
:10615000000000000000000000000000000000003F
:10616000000000000000002000000000010000000E
:10617000000000000000C0076EF000000000008773
:10618000000000006000000000000000F0000000BF
:10619000C0FF01000000000002000000000000FF3E
:1061A0007F0000000000008003000000000078066F
:1061B0000700000080EF1F00000000000000080042
:1061C000030000000000C07F001E0000000000006F
:1061D000000000000080D34000000080F8070000AD
:1061E000030000000000005801008000C01F1F00D5
:1061F00000000000000000FF5C0000400000000004
:10620000000000000000F9A50D00000000000000E3
:106210000000000000803CB00100003000000000E1
:10622000000000000000F8A70100000000000000CE
:10623000000000000028BF00000000E0BC0F0000CC
:10624000000000000080FF060000F00C01000000CC
:10625000FE0700000000F87980007E0E00000000BC
:1062600000FC7F03000000000000000000007FBF72
:106270000000FCFFFFFC6D000000000000007EB489
:10628000BF000000000000000000A30000000000AC
:1062900000000000000018000000000000001F00C7
:1062A0000000000000007F000080000000000000EF
:1062B00000800700000000000000006000000000F7
:1062C00000000000A0C307F8E70F0000003C00003A
:1062D0001C00000000000000FFFFFFFFFFFF7FF831
:1062E000FFFFFFFFFF1F2000100000F8FEFF00006F
:1062F0007FFFFFF9DB0700000000000000F0000056
:1063000000007F0000000000F00700000000000017
:1063100000000000FFFFFFFFFFFFFFFFFFFFFFFF89
:10632000FFFFFFFFFFFF0000000000000000000073
:10633000000000000000000000000000000000005D
:10634000000000000000000000000000000000004D
:10635000000000000000000000000000000000003D
:10636000000000000000000000000000000000002D
:10637000000000000000000000000000000000001D
:106380000000000000000000FFFFFFFFFFFFFFFF15
:10639000FFFFFFFFFFFF0000000000000000000003
:1063A00000000000000000000000000000000000ED
:1063B0000000000000000000F803000000000000E2
:1063C00000000000000000000000000000000000CD
:1063D00000000000000000000000FEFFFFFFFFBF04
:1063E000B6000000000000000000FF0700000000F1
:1063F00000F8FFFF000001000000000000000000A6
:106400000000C09F9F3D0000000002000000FFFF51
:10641000FF0700000000000000000000C0FF0100B6
:106420000000000000F80F20085D00004A00000096
:10643000585F000000020000586100003A000000B0
:1064400000010203040506070809080A0B0C0D0EDB
:106450000F10111213140215161718191A1B1C1DF0
:106460001E1F200202020202020202020221020296
:106470000202020202020202020202022223242576
:106480002602270228020202292A2B022C2D2E2F57
:10649000300202310202023202020202020202024F
:1064A0003302023402020202020202020202020269
:1064B00002020202020202020202020202020202BC
:1064C00002020202020202020202020202020202AC
:1064D0000202023502360237020202020202020200
:1064E000380239020202020202020202020202021F
:1064F000020202020202020202020202020202027C
:10650000020202020202020202020202020202026B
:10651000020202020202020202020202020202025B
:10652000020202020202020202020202020202024B
:10653000020202020202020202020202020202023B
:10654000020202020202020202020202020202022B
:10655000020202020202020202020202020202021B
:10656000020202020202020202020202020202020B
:1065700002020202020202020202020202020202FB
:1065800002020202020202020202020202020202EB
:1065900002020202020202020202020202020202DB
:1065A00002020202020202020202020202020202CB
:1065B00002020202020202020202020202020202BB
:1065C00002020202020202020202020202020202AB
:1065D000020202020202020202020202020202029B
:1065E000020202020202020202020202020202028B
:1065F000020202020202020202020202020202027B
:10660000020202020202020202020202020202026A
:10661000020202020202020202020202020202025A
:10662000020202020202020202020202020202024A
:10663000020202020202020202020202020202023A
:10664000020202020202020202020202020202022A
:10665000020202020202020202020202020202021A
:10666000020202020202020202020202020202020A
:1066700002020202020202020202020202020202FA
:1066800002020202020202020202020202020202EA
:1066900002020202020202020202020202020202DA
:1066A00002020202020202020202020202020202CA
:1066B0000202020202020202023A3B3C020202020F
:1066C0003D02023E3F4041424344454602020247EA
:1066D000020202020202020202020202020202029A
:1066E000020202020202020202020202020202028A
:1066F000020202020202020202020202020202027A
:106700000202020202020202020202020202020269
:106710000202020202020202020202020202020259
:106720000202020202020202020202020202020249
:106730000202020202020202020202020202020239
:106740000202020202020202020202020202020229
:106750000202020202020202020202020202020219
:106760000202020202020202020202020202020209
:1067700002020202020202020202020202020202F9
:1067800002020202020202020202020202020202E9
:1067900002020202020202020202020202020202D9
:1067A00002020202020202020202020202020202C9
:1067B00002020202020202020202020202020202B9
:1067C00002020202020202020202020202020202A9
:1067D0000202020202020202020202020202020299
:1067E0000202020202020202020202020202020289
:1067F0000202020202020202020202020202020279
:106800000202020202020202020202024802020222
:1068100002020202020202024902020202023B02D8
:106820000001020202020302020202040205060241
:106830000202020202020202020202020202020238
:106840000202020202020202020202020202020228
:106850000202020202020202020202020202020218
:106860000202020202020202020202020202020208
:1068700002020202020202020202020202020202F8
:1068800002020202020202020202020202020202E8
:1068900002020202020202020202020202020202D8
:1068A00002020202020202020202020202020202C8
:1068B00002020202020202020202020202020202B8
:1068C00002020202020202020202020202020202A8
:1068D0000202020202020202020202020202020298
:1068E0000202020202020202020202020202020288
:1068F0000702020202020202020202020202020273
:106900000202020202020202020202020202020267
:106910000202020202020202020202020202020257
:1069200054727946726F6D496E744572726F72005F
:10693000C5300000040000000400000065490000AC
:106940000A000000406900000000000040690000EB
:10695000010000009F4A0000040000000400000045
:0C696000774B0000A14A0000514B0000E2
:0400000300004D2B81
:00000001FF
